:040000007DEF36F06A
:106ADA00070E93160F0E951212007AC001F07BC0B2
:106AEA0002F0120094929494030ECA12CA840C0EF5
:106AFA00BD120C0EBA121200000E016E012A180EF7
:106B0A0001648AEF35F08CEF35F083EF35F012002F
:106B1A00000E026E81EC35F0022A310E026498EF03
:106B2A0035F09AEF35F08FEF35F01200000E946EC3
:106B3A00000E966E010E826E010E846E9DEC37F089
:106B4A0012EC36F0A8EC36F01200480E016EE80E90
:106B5A00026E010E036E000E046E0FC005F010C027
:106B6A0006F0076A086ACEEC3AF00104CB6E12000E
:106B7A0001500302F3CF05F0F4CF06F001500402EE
:106B8A00F350062602500302F350062605C001F010
:106B9A0006C002F01200060EC16E010E936E000EC0
:106BAA00946E000E956E000E966EF80E936E77EC4C
:106BBA0035F0600E67EC37F0828A120077EC35F018
:106BCA00270E106E100E0F6EAAEC35F0320E31EC55
:106BDA0037F0010E026E900E016ED4EC36F0000E04
:066BEA0031EC37F012004F
:106BF1005265736964656E63696120496E7661648B
:106C010069646143656E7472616C2044657361727D
:106C11006D6164610043656E7472616C2041726DD7
:106C210061646177EC35F0270E106E100E0F6EAABD
:106C3100EC35F0320E31EC37F0010E026E900E01A0
:106C41006ED4EC36F0000E31EC37F0000E026E9689
:096C51000E016ED4EC36F01200C5
:106C5B00416C61726D65204469676974653A2031D6
:106C6B002841726D61722920322844657361726DFF
:106C7B0061722943656E7472616C206A6120617266
:106C8B006D61646100000043656E7472616C206A13
:106C9B00612064657361726D616461076E83CF08F7
:106CAB00F0000E956E000E026E220E016E000E04A9
:106CBB006E010E036EB2EC3DF007C083FF000E02B7
:106CCB006E210E016E000E046E010E036EB2EC3DD2
:106CDB00F0000E026E210E016E000E046E000E030C
:106CEB006EB2EC3DF008C083FF81EC35F012005B17
:106CFB000EF66E6C0EF76E000EF86E00EE80F01056
:106D0B00EE4BF00900F5CFEEFFE550E150FAE1F163
:106D1B000EF66E6B0EF76E000EF86E00EE43F01073
:106D2B00EE33F00900F5CFEEFFE550E150FAE1004C
:106D3B00EE76F0070EEE6AE806FDE1000EF86E0047
:106D4B0001A6EF3CF0000E956E000E926EF19E0EBA
:106D5B000EC16EFD0E936E000E816E8368010E02E6
:106D6B006E2C0E016ED4EC36F0000E836E010E020B
:106D7B006E2C0E016ED4EC36F0808A808880868073
:106D8B0084000E836E000E076E072A090E0764D16E
:106D9B00EF36F0D3EF36F0CAEF36F01200000E05E7
:106DAB006E000E046EF2EF36F0000E066E062A062B
:106DBB0028D8A4E3EF36F0E5EF36F0DCEF36F00041
:106DCB000E066E062A0628D8A4EEEF36F0F0EF3644
:106DDB00F0E7EF36F0044A052A0150045C055080B9
:106DEB000A036E0250800A0358D8A0FFEF36F00159
:106DFB00EF37F0DAEF36F0120077EC35F0000E12C9
:106E0B006E000E116E270E106E100E0F6EAAEC3563
:106E1B00F0320E31EC37F0010E026E2C0E016ED4F7
:106E2B00EC36F0000E31EC37F0010E026E2C0E0139
:106E3B006ED4EC36F0114A122A12BE2EEF37F01236
:106E4B005009E1020E115CD8A02EEF37F030EF376E
:106E5B00F008EF37F012000A6E010ECB24016E0220
:106E6B006A000E02220AC003F0046ABDEC35F00181
:106E7B00C00BF002C00CF00BC001F00CC002F00014
:106E8B000E046E190E036ED6EC37F001C00BF00238
:106E9B00C00CF0FF0E0B16030E0C160BC008F00CFB
:106EAB00C009F0D89009320832D89009320832085C
:106EBB0050BB6E0BC008F0030E08160838F00BBA67
:106ECB001212000A6E010ECB24016E026A000E0232
:106EDB00220AC003F0046ABDEC35F001C00BF002CE
:106EEB00C00CF00BC001F00CC002F0000E046E19C8
:106EFB000E036ED6EC37F001C00BF002C00CF0FFA6
:106F0B000E0B16030E0C160BC008F00CC009F0D8B4
:106F1B009009320832D890093208320850BE6E0BF5
:106F2B00C008F0030E08160838F00BBD1212002033
:106F3B00EE43F010EE09F0120EDBCFE3FFE806FC98
:106F4B00E210EC38F0C30EC8EC38F0000E1D6E00EA
:106F5B000E1C6E090E1C24D96E000E1D20DA6EDF7E
:106F6B005053EC36F00A0E1C181D10D8A4C0EF3786
:106F7B00F0C2EF37F0C5EF37F0940EC8EC38F01CC9
:106F8B004A1D2A1DBED3EF37F01D5009E1130E1C0D
:106F9B005CD8A0D3EF37F0D5EF37F0AFEF37F01267
:106FAB0000000E066E000E056E03500410D8B4E1FF
:106FBB00EF37F0E3EF37F00BEF38F0010E076EEB26
:106FCB00EF37F0D89003360436072A04AEF0EF37CC
:106FDB00F0F2EF37F0E7EF37F0D8900536063603CF
:106FEB0050015C04500258D8A0FEEF37F000EF3888
:106FFB00F005EF38F00350015E0450025A0580D8BB
:10700B009004320332072EF2EF37F005C001F00681
:10701B00C002F01200000E026E220E016E000E0472
:10702B006E000E036ED9EC3EF0000E026E210E01C7
:10703B006E000E046E000E036ED9EC3EF0000E9542
:10704B006E8DEC35F08DEC35F08DEC35F08DEC353F
:10705B00F08DEC35F0380EC8EC38F08DEC35F08D4A
:10706B00EC35F0380EC8EC38F08DEC35F0380EC836
:10707B00EC38F0380EC8EC38F0060EC8EC38F00CD3
:10708B000EC8EC38F0010EC8EC38F0120020EE6898
:10709B00F010EE0CF00D0EDBCFE3FFE806FCE21078
:1070AB00EC38F0010EC8EC38F0000E096E040E0738
:1070BB00EC39F0000E1B6E000E1A6E0C0E1A24D952
:1070CB006E000E1B20DA6EDF5053EC36F0070E1AF3
:1070DB00181B10D8A474EF38F076EF38F079EF382E
:1070EB00F0C40EC8EC38F01A4A1B2A1BBE87EF38C7
:1070FB00F01B5009E10E0E1A5CD8A087EF38F0890F
:10710B00EF38F063EF38F0120020EE56F010EE0C73
:10711B00F0110EDBCFE3FFE806FCE210EC38F001D8
:10712B000EC8EC38F0000E096E050E07EC39F000B6
:10713B000E1F6E000E1E6E0C0E1E24D96E000E1F3F
:10714B0020DA6EDF5053EC36F0070E1E181F10D8E6
:10715B00A4B2EF38F0B4EF38F0B7EF38F0C40EC884
:10716B00EC38F01E4A1F2A1FBEC5EF38F01F50091E
:10717B00E1120E1E5CD8A0C5EF38F0C7EF38F0A1B6
:10718B00EF38F01200086E83CF07F0000E956E00FB
:10719B000E026E220E016E000E046E000E036EB216
:1071AB00EC3DF008C083FF000E026E210E016E0055
:1071BB000E046E010E036EB2EC3DF0000E026E215A
:1071CB000E016E000E046E000E036EB2EC3DF00766
:1071DB00C083FF020E0818D8B4F6EF38F0F8EF387A
:1071EB00F000EF39F00804D8A4FEEF38F000EF39C7
:1071FB00F004EF39F08DEC35F006EF39F081EC351A
:10720B00F012000B6E000E0A6E0950D8A410EF3965
:10721B00F012EF39F015EF39F00950800F0A6E09B3
:10722B0050D8A41BEF39F01DEF39F020EF39F00BDC
:10723B0050800F0A6E0950D8A426EF39F028EF3989
:10724B00F033EF39F00A04D8B42EEF39F030EF39C0
:10725B00F033EF39F00B50800F0A6E0904D8A439C4
:10726B00EF39F03BEF39F046EF39F00A04D8B4416F
:10727B00EF39F043EF39F046EF39F00B50C00F0AFE
:10728B006E0F0E0B644CEF39F04EEF39F04EEF39B9
:10729B00F00A50C8EC38F0120020EE80F010EE0C23
:1072AB00F0220EDBCFE3FFE806FCE210EC38F00037
:1072BB000E096E000E07EC39F0000E306E000E2F2B
:1072CB006E0C0E2F24D96E000E3020DA6EDF505369
:1072DB00EC36F0060E2F183010D8A477EF39F07972
:1072EB00EF39F07CEF39F0C00EC8EC38F00E0E2FF2
:1072FB00183010D8A484EF39F086EF39F089EF39C4
:10730B00F0920EC8EC38F0170E2F183010D8A4914D
:10731B00EF39F093EF39F096EF39F0D20EC8EC3825
:10732B00F02F4A302A30BEA4EF39F0305009E12358
:10733B000E2F5CD8A0A4EF39F0A6EF39F066EF3929
:10734B00F0120020EEA3F010EE09F0130EDBCFE3EA
:10735B00FFE806FCE210EC38F0010EC8EC38F085C3
:10736B000EC8EC38F0000E1E6E000E1D6E080E1DC2
:10737B00181E10D8A4C4EF39F0C6EF39F0C9EF3995
:10738B00F0C40EC8EC38F0090E1D24D96E000E1E89
:10739B0020DA6EDF5053EC36F01D4A1E2A1EBEE07B
:1073AB00EF39F01E5009E1140E1D5CD8A0E0EF3947
:1073BB00F0E2EF39F0BCEF39F0000E1E6E000E1D3F
:1073CB006E010E026EF40E016ED4EC36F01D4A1EE9
:1073DB002A1EBEFAEF39F01E5009E1050E1D5CD8CE
:1073EB00A0FAEF39F0FCEF39F0E6EF39F0010EC8F7
:1073FB00EC38F0120020EEB7F010EE09F0130EDBB4
:10740B00CFE3FFE806FCE210EC38F0010EC8EC38D5
:10741B00F0850EC8EC38F0000E1E6E000E1D6E08C7
:10742B000E1D181E10D8A41DEF3AF01FEF3AF022D4
:10743B00EF3AF0C20EC8EC38F0090E1D24D96E00DD
:10744B000E1E20DA6EDF5053EC36F01D4A1E2A1E3C
:10745B00BE39EF3AF01E5009E1140E1D5CD8A0396D
:10746B00EF3AF03BEF3AF015EF3AF0000E1E6E00DC
:10747B000E1D6E010E026EF40E016ED4EC36F01D75
:10748B004A1E2A1EBE53EF3AF01E5009E1050E1D8F
:10749B005CD8A053EF3AF055EF3AF03FEF3AF001DA
:1074AB000EC8EC38F01200000E956E000E926EF1C5
:1074BB009E0E0EC16EFD0E936E000E816E809A8035
:1074CB0098809680948AEC38F0E3EC35F0000E222D
:1074DB006E8368030E026EE80E016ED4EC36F0007C
:1074EB000E836E030E026EE80E016ED4EC36F022A4
:1074FB002A2250D8B484EF3AF086EF3AF06EEF3A86
:10750B00F0000E226E8098809680843F0E836E0072
:10751B000E026E0A0E016ED4EC36F08094808680DB
:10752B0088710E836E000E026E0A0E016ED4EC365D
:10753B00F0222A630E2264A5EF3AF0A7EF3AF08807
:10754B00EF3AF0809880968094000E216E000E200A
:10755B006E000E226E222A630E2264B7EF3AF0B948
:10756B00EF3AF0B0EF3AF0204A212A21BEC7EF3AAA
:10757B00F0E80E205C030E2158D8A0C7EF3AF0C9F3
:10758B00EF3AF0AEEF3AF0010EC8EC38F0829A12F7
:10759B0000000E0A6E08BED7EF3AF0D5EF3AF0E1D5
:1075AB00EF3AF0081E071E061E056C000E0622079A
:1075BB00220822010E0A6E04BEE8EF3AF0E6EF3A1B
:1075CB00F0F2EF3AF0041E031E021E016C000E02D5
:1075DB002203220422010E0A1A000E0B6E000E0C5F
:1075EB006E000E0D6E000E0E6E0550061007100885
:1075FB0010D8B403EF3BF005EF3BF03BEF3BF00152
:10760B000E096E0FEF3BF0D890053606360736089D
:10761B0036092A08AE14EF3BF016EF3BF009EF3BAF
:10762B00F0D8900B360C360D360E360550015C0635
:10763B005002580750035808500458D8A028EF3B65
:10764B00F02AEF3BF033EF3BF00550015E065002A2
:10765B005A0750035A0850045A0B80D89008320727
:10766B003206320532092E16EF3BF00A50D8B441E0
:10767B00EF3BF043EF3BF04BEF3BF00E1E0D1E0CC0
:10768B001E0B6C000E0C220D220E220BC001F00CF7
:10769B00C002F00DC003F00EC004F01200000E95F6
:1076AB006E000E926EF19E0E0EC16EFD0E936E006D
:1076BB000E816E809A8098809680944CEC38F00204
:1076CB00EC37F0000E1F6E000E1E6E000E1C6E1CB3
:1076DB002A630E1C6474EF3BF076EF3BF06DEF3BCF
:1076EB00F01E4A1F2A1FBE84EF3BF0880E1E5C1350
:1076FB000E1F58D8A084EF3BF086EF3BF06BEF3BAF
:10770B00F0000E1F6E000E1E6E8368000E026E647C
:10771B000E016ED4EC36F0000E836E000E026E641A
:10772B000E016ED4EC36F01E4A1F2A1FBEA7EF3B8C
:10773B00F01F5009E1040E1E5CD8A0A7EF3BF0A987
:10774B00EF3BF08AEF3BF08368000E026E640E0194
:10775B006ED4EC36F0000E1F6E000E1E6E80883756
:10776B000E836E000E1D6E1D2A630E1D64C0EF3B53
:10777B00F0C2EF3BF0B9EF3BF0809880863F0E8371
:10778B006E000E1D6E1D2A630E1D64CFEF3BF0D1F4
:10779B00EF3BF0C8EF3BF01E4A1F2A1FBEDFEF3B4B
:1077AB00F0E80E1E5C030E1F58D8A0DFEF3BF0E194
:1077BB00EF3BF0B4EF3BF0809A8098809680940179
:1077CB000EC8EC38F0120083CF06F00F0E951200A6
:1077DB000E0A6EF80E93160AC001F0010E026E012E
:1077EB002AFAEF3BF0D8900236012EF8EF3BF0026D
:1077FB00509312070E81120AC001F0010E026E01A6
:10780B002A0AEF3CF0D8900236012E08EF3CF0022A
:10781B0050FF0A8116000E086E000E076E074A080D
:10782B002A08BE22EF3CF0085009E10A0E075CD88B
:10783B00A022EF3CF024EF3CF014EF3CF0000E09DB
:10784B006E09C001F0010E026E012A2FEF3CF0D839
:10785B00900236012E2DEF3CF0025083140009D814
:10786B00A43AEF3CF03CEF3CF054EF3CF00A5004F0
:10787B000DF3500924016E010E026E000E036E0112
:10788B002A4BEF3CF0D89002360336012E48EF3CE2
:10789B00F002507812035079126EEF3CF00A50044C
:1078AB000DF3500924016E010E026E000E036E01E2
:1078BB002A63EF3CF0D89002360336012E60EF3C82
:1078CB00F0021C046E031C056E04507816055079EB
:1078DB0016092A030E096475EF3CF077EF3CF0268E
:1078EB00EF3CF00A2A020E0A647EEF3CF080EF3C7C
:1078FB00F0EFEF3BF07850761807E179507718D816
:10790B00A48AEF3CF08CEF3CF08FEF3CF07C0695BB
:10791B00EF3CF00A0E7C6E78C076F079C077F07C85
:10792B0050D8A49BEF3CF09DEF3CF0A1EF3CF076E0
:10793B00C07AF077C07BF006C083FF000E956E1205
:10794B0000000E406E000E3F6E000E346E000E33C4
:10795B006E000E366E000E356E000E386E000E3752
:10796B006E000E3E6E000E3D6E000E426E000E411E
:10797B006E6DEC35F03D503E10D8A4C7EF3CF0C90E
:10798B00EF3CF0CFEF3CF052EC39F0000E3E6E01C5
:10799B000E3D6E72EC35F03950011809E13A500288
:1079AB0018D8B4DBEF3CF0DDEF3CF039EF3DF07273
:1079BB00EC35F001C039F002C03AF072EC35F00151
:1079CB00A6EAEF3CF0ECEF3CF003EF3DF041044254
:1079DB0010D8B4F3EF3CF0F5EF3CF0FFEF3CF000C8
:1079EB000E406E010E3F6E000E426E010E416E0395
:1079FB00EF3DF0000E406E050E3F6E72EC35F00160
:107A0B00AE0AEF3DF00CEF3DF023EF3DF0410442A9
:107A1B0010D8A413EF3DF015EF3DF01FEF3DF00034
:107A2B000E406E020E3F6E000E426E000E416E2334
:107A3B00EF3DF0000E406E040E3F6E72EC35F0021F
:107A4B00A62AEF3DF02CEF3DF039EF3DF04104421B
:107A5B0010D8A433EF3DF035EF3DF039EF3DF0009A
:107A6B000E406E030E3F6EE9EC3BF08EEF3DF001E6
:107A7B000EC8EC38F054EC3BF0D0EC35F0000E4077
:107A8B006E000E3F6E000EC16EBEEF3CF059EC3A2D
:107A9B00F0000E406E000E3F6E000EC16E000E67C2
:107AAB00EC37F0000E3E6E000E3D6EBEEF3CF0006C
:107ABB000E3C6E000E3B6E9BEC35F03B4A3C2A3C79
:107ACB00BE71EF3DF03C5009E1140E3B5CD8A07148
:107ADB00EF3DF073EF3DF061EF3DF0000E826E0075
:107AEB000E846E59EC3AF0000E406E000E3F6E00A5
:107AFB000E67EC37F057EF3DF000EC3AF0000E401C
:107B0B006E000E3F6E57EF3DF0A7EC39F084EF3D62
:107B1B00F03FC031F040C032F03250000AD8B49977
:107B2B00EF3DF0BEEF3CF03150010AD8B43DEF3DD4
:107B3B00F0030AD8B44CEF3DF0010AD8B45DEF3D29
:107B4B00F0070AD8B482EF3DF0010AD8B48AEF3DB2
:107B5B00F0BEEF3CF000EF00F002BEC0EF3DF002D4
:107B6B005007E1080E015CD8B0BEEF3DF0C0EF3D11
:107B7B00F0EAEF3DF003500410D8B4C7EF3DF0C965
:107B8B00EF3DF0D9EF3DF001C005F0010E066E059B
:107B9B002AD2EF3DF0D8900636052ED0EF3DF006F9
:107BAB00508012D8EF3EF001C005F0010E066E05B5
:107BBB002AE2EF3DF0D8900636052EE0EF3DF006B9
:107BCB0050FF0A8016D8EF3EF002BEF8EF3DF002F0
:107BDB005007E1100E015CD8B0F6EF3DF0F8EF3D29
:107BEB00F026EF3EF0F80E0126FF0E0222035004A2
:107BFB0010D8B403EF3EF005EF3EF015EF3EF00169
:107C0B00C005F0010E066E052A0EEF3EF0D8900669
:107C1B0036052E0CEF3EF006508112D8EF3EF001E8
:107C2B00C005F0010E066E052A1EEF3EF0D8900639
:107C3B0036052E1CEF3EF00650FF0A8116D8EF3E9C
:107C4B00F002BE34EF3EF0025007E1180E015CD893
:107C5B00B032EF3EF034EF3EF062EF3EF0F00E014B
:107C6B0026FF0E022203500410D8B43FEF3EF04122
:107C7B00EF3EF051EF3EF001C005F0010E066E0530
:107C8B002A4AEF3EF0D8900636052E48EF3EF00616
:107C9B00508212D8EF3EF001C005F0010E066E05C2
:107CAB002A5AEF3EF0D8900636052E58EF3EF006D6
:107CBB0050FF0A8216D8EF3EF002BE70EF3EF00284
:107CCB005007E1200E015CD8B06EEF3EF070EF3E36
:107CDB00F09EEF3EF0E80E0126FF0E022203500449
:107CEB0010D8B47BEF3EF07DEF3EF08DEF3EF00110
:107CFB00C005F0010E066E052A86EF3EF0D8900601
:107D0B0036052E84EF3EF006508312D8EF3EF0017D
:107D1B00C005F0010E066E052A96EF3EF0D89006D0
:107D2B0036052E94EF3EF00650FF0A8316D8EF3E31
:107D3B00F002BEACEF3EF0025007E1280E015CD81A
:107D4B00B0AAEF3EF0ACEF3EF0D8EF3EF0E00E0104
:107D5B0026FF0E022203500410D8B4B7EF3EF0B941
:107D6B00EF3EF0C9EF3EF001C005F0010E066E05C7
:107D7B002AC2EF3EF0D8900636052EC0EF3EF00635
:107D8B00508412D8EF3EF001C005F0010E066E05CF
:107D9B002AD2EF3EF0D8900636052ED0EF3EF006F5
:107DAB0050FF0A8416120002BEE7EF3EF0025007A6
:107DBB00E1080E015CD8B0E5EF3EF0E7EF3EF011C5
:107DCB00EF3FF003500410D8B4EEEF3EF0F0EF3E6F
:107DDB00F000EF3FF001C005F0010E066E052AF929
:107DEB00EF3EF0D8900636052EF7EF3EF006509298
:107DFB0012FFEF3FF001C005F0010E066E052A09D8
:107E0B00EF3FF0D8900636052E07EF3FF00650FFF8
:107E1B000A9216FFEF3FF002BE1FEF3FF002500732
:107E2B00E1100E015CD8B01DEF3FF01FEF3FF04D9E
:107E3B00EF3FF003500410D8B426EF3FF028EF3F8C
:107E4B00F03AEF3FF001C005F0F80E0526010E06E3
:107E5B006E052A33EF3FF0D8900636052E31EF3FF3
:107E6B00F006509312FFEF3FF001C005F0F80E053E
:107E7B0026010E066E052A45EF3FF0D89006360513
:107E8B002E43EF3FF00650FF0A9316FFEF3FF00231
:107E9B00BE5BEF3FF0025007E1180E015CD8B05902
:107EAB00EF3FF05BEF3FF089EF3FF003500410D84A
:107EBB00B462EF3FF064EF3FF076EF3FF001C005A7
:107ECB00F0F00E0526010E066E052A6FEF3FF0D877
:107EDB00900636052E6DEF3FF006509412FFEF3FE4
:107EEB00F001C005F0F00E0526010E066E052A8185
:107EFB00EF3FF0D8900636052E7FEF3FF00650FF90
:107F0B000A9416FFEF3FF002BE97EF3FF0025007C7
:107F1B00E1200E015CD8B095EF3FF097EF3FF0C535
:107F2B00EF3FF003500410D8B49EEF3FF0A0EF3FAB
:107F3B00F0B2EF3FF001C005F0E80E0526010E068A
:107F4B006E052AABEF3FF0D8900636052EA9EF3F12
:107F5B00F006509512FFEF3FF001C005F0E80E055B
:107F6B0026010E066E052ABDEF3FF0D890063605AA
:107F7B002EBBEF3FF00650FF0A9516FFEF3FF002C6
:107F8B00BED3EF3FF0025007E1280E015CD8B0D111
:107F9B00EF3FF0D3EF3FF0FFEF3FF003500410D86B
:107FAB00B4DAEF3FF0DCEF3FF0EEEF3FF001C0054E
:107FBB00F0E00E0526010E066E052AE7EF3FF0D81E
:107FCB00900636052EE5EF3FF006509612FFEF3F79
:107FDB00F001C005F0E00E0526010E066E052AF92C
:107FEB00EF3FF0D8900636052EF7EF3FF00650FF27
:057FFB000A96161200B9
:020000040020DA
:08000000FFFFFFFFFFFFFFFF00
:020000040030CA
:0E000000FF027100FF8380FF0FC00FE00F4072
:00000001FF
